{
  "contractName": "buy",
  "abi": [
    {
      "inputs": [
        {
          "internalType": "contract token",
          "name": "_syntETH",
          "type": "address"
        }
      ],
      "stateMutability": "nonpayable",
      "type": "constructor"
    },
    {
      "anonymous": false,
      "inputs": [
        {
          "indexed": false,
          "internalType": "address",
          "name": "account",
          "type": "address"
        },
        {
          "indexed": false,
          "internalType": "address",
          "name": "token",
          "type": "address"
        },
        {
          "indexed": false,
          "internalType": "uint256",
          "name": "amount",
          "type": "uint256"
        },
        {
          "indexed": false,
          "internalType": "uint256",
          "name": "rate",
          "type": "uint256"
        }
      ],
      "name": "sETHPurchased",
      "type": "event"
    },
    {
      "inputs": [],
      "name": "name",
      "outputs": [
        {
          "internalType": "string",
          "name": "",
          "type": "string"
        }
      ],
      "stateMutability": "view",
      "type": "function",
      "constant": true
    },
    {
      "inputs": [],
      "name": "rateToken",
      "outputs": [
        {
          "internalType": "uint256",
          "name": "",
          "type": "uint256"
        }
      ],
      "stateMutability": "view",
      "type": "function",
      "constant": true
    },
    {
      "inputs": [],
      "name": "syntETH",
      "outputs": [
        {
          "internalType": "contract token",
          "name": "",
          "type": "address"
        }
      ],
      "stateMutability": "view",
      "type": "function",
      "constant": true
    },
    {
      "inputs": [],
      "name": "buysETH",
      "outputs": [],
      "stateMutability": "payable",
      "type": "function",
      "payable": true
    }
  ],
  "bytecode": "0x60806040526040518060400160405280601281526020017f42757920746f6b656e20636f6e747261637400000000000000000000000000008152506000908051906020019061004f9291906100dc565b50600160025534801561006157600080fd5b506040516106913803806106918339818101604052602081101561008457600080fd5b810190808051906020019092919050505080600160006101000a81548173ffffffffffffffffffffffffffffffffffffffff021916908373ffffffffffffffffffffffffffffffffffffffff16021790555050610181565b828054600181600116156101000203166002900490600052602060002090601f016020900481019282601f1061011d57805160ff191683800117855561014b565b8280016001018555821561014b579182015b8281111561014a57825182559160200191906001019061012f565b5b509050610158919061015c565b5090565b61017e91905b8082111561017a576000816000905550600101610162565b5090565b90565b610501806101906000396000f3fe60806040526004361061003f5760003560e01c806306fdde031461004457806328da7f6a146100d457806342d2a40d1461012b57806361ecf76114610135575b600080fd5b34801561005057600080fd5b50610059610160565b6040518080602001828103825283818151815260200191508051906020019080838360005b8381101561009957808201518184015260208101905061007e565b50505050905090810190601f1680156100c65780820380516001836020036101000a031916815260200191505b509250505060405180910390f35b3480156100e057600080fd5b506100e96101fe565b604051808273ffffffffffffffffffffffffffffffffffffffff1673ffffffffffffffffffffffffffffffffffffffff16815260200191505060405180910390f35b610133610224565b005b34801561014157600080fd5b5061014a6104c5565b6040518082815260200191505060405180910390f35b60008054600181600116156101000203166002900480601f0160208091040260200160405190810160405280929190818152602001828054600181600116156101000203166002900480156101f65780601f106101cb576101008083540402835291602001916101f6565b820191906000526020600020905b8154815290600101906020018083116101d957829003601f168201915b505050505081565b600160009054906101000a900473ffffffffffffffffffffffffffffffffffffffff1681565b600060013402905080600160009054906101000a900473ffffffffffffffffffffffffffffffffffffffff1673ffffffffffffffffffffffffffffffffffffffff166370a08231306040518263ffffffff1660e01b8152600401808273ffffffffffffffffffffffffffffffffffffffff1673ffffffffffffffffffffffffffffffffffffffff16815260200191505060206040518083038186803b1580156102cc57600080fd5b505afa1580156102e0573d6000803e3d6000fd5b505050506040513d60208110156102f657600080fd5b8101908080519060200190929190505050101561031257600080fd5b600160009054906101000a900473ffffffffffffffffffffffffffffffffffffffff1673ffffffffffffffffffffffffffffffffffffffff1663a9059cbb33836040518363ffffffff1660e01b8152600401808373ffffffffffffffffffffffffffffffffffffffff1673ffffffffffffffffffffffffffffffffffffffff16815260200182815260200192505050602060405180830381600087803b1580156103bb57600080fd5b505af11580156103cf573d6000803e3d6000fd5b505050506040513d60208110156103e557600080fd5b8101908080519060200190929190505050507fa9469eebe04eb1387fc6cd58750bbb2916756abe6f0caea7032bbac6bf4749d033600160009054906101000a900473ffffffffffffffffffffffffffffffffffffffff1683600254604051808573ffffffffffffffffffffffffffffffffffffffff1673ffffffffffffffffffffffffffffffffffffffff1681526020018473ffffffffffffffffffffffffffffffffffffffff1673ffffffffffffffffffffffffffffffffffffffff16815260200183815260200182815260200194505050505060405180910390a150565b6002548156fea26469706673582212205da8eaa29dd4fd2eecb20cd2b2b4726df9efec2fa519a1cb4fadb6d38c74a88264736f6c63430006070033",
  "immutableReferences": {},
  "source": "pragma solidity ^0.6.7; \n\nimport \"./token.sol\"; \n\ncontract buy{ \n\n\tstring public name = \"Buy token contract\"; \n\ttoken public syntETH;\n\tuint public rateToken = 1;\n\n\n\tevent  sETHPurchased(\n\t\taddress account, \n\t\taddress token,\n\t\tuint amount, \n\t\tuint rate\n\t\t);\n\n\tconstructor (token _syntETH) public {\n\t\tsyntETH = _syntETH;\n\t}\n\n\tfunction buysETH() public payable {\n\t\t//Calculate the number of token to buy\n\t\tuint sETHAmount = msg.value * 1;\n\t\t//require that the swap contract has enough tokens \n\t\trequire(syntETH.balanceOf(address(this)) >= sETHAmount);\n\t\t//transfer tokens to user\n\t\tsyntETH.transfer(msg.sender, sETHAmount);\n\t\t//emit the SUSDPurchased event \n\t\temit sETHPurchased(msg.sender, address(syntETH), sETHAmount, rateToken);\n\t}\n}\n\n",
  "sourcePath": "/Users/goudurix/ERC20_project/contracts/buy.sol",
  "compiler": {
    "name": "solc",
    "version": "0.6.7+commit.b8d736ae.Emscripten.clang"
  },
  "schemaVersion": "3.2.0",
  "updatedAt": "2020-08-29T14:02:03.131Z",
  "networkType": "ethereum",
  "devdoc": {
    "methods": {}
  },
  "userdoc": {
    "methods": {}
  }
}